:100000000C9446070C948D070C948D070C948D0767
:100010000C948D070C948D070C948D070C948D0710
:100020000C948D070C948D070C942E2A0C94002BA5
:100030000C9477240C948D070C948D070C948D07E9
:100040000C948D070C948D070C948D070C948D07E0
:100050000C948D070C94D0240C948D070C948D0770
:100060000C948D070C94F0080C948D070C948D075C
:100070000C948D070C948D070C948D070C948D07B0
:100080000C948D070C948D070C948D070C948D07A0
:100090000C948D070C948D070C948D070C948D0790
:1000A0000C948D070C948D070C948D07060FF40E9D
:1000B0000D0F920DE20FE20FF10EE20FE20F3A0F79
:1000C000E20F4E0FC20FE20FE20FE20FE20F7E0FC0
:1000D000E20FE20F6B0FE20F260FE20FE20FDC0FD1
:1000E000DC0FDC0FDC0FDC0FDC0FDC0FDC0FDC0FB8
:1000F000DE0FE20F060FE90EE20FE20FE20FE20F52
:10010000E20FE20FE20FE20FE20FE20FDE0FE20F6B
:10011000E20FF10EE20FDA0FDA0FDA0FDA0FDA0F71
:10012000DA0FDA0FDA0FDA0FDE0F78197819AA1959
:10013000AA19F719151A361B361B201AB51AC61A32
:10014000C61A261B361B361B2F1BD61BD61BE81BBD
:10015000E81BDF1BE81BE81BE81BD61BD61BE41BB8
:10016000E81BE81BE41B6D2B942B8C2C942B8C2C04
:10017000E02B032C8C2C5A2C692C0A0025303136AC
:1001800062003A200025303258000A722F63203076
:100190003132333435363738394142434445460AE3
:1001A0000035001E001F0020002100220000422F09
:1001B00000230024002500260027002D002B00141A
:1001C000001A00080015001700004130001C00183C
:1001D000000C00120013002E002900040016000776
:1001E0000009000A004A004E000B000D000E000F2F
:1001F0000033003400E1001D001B0006001900055B
:10020000004D004B0011001000360037003800E5AB
:1002100000E000E30000000000E2002A004C00289B
:10022000002C005000510052004F0031000000002F
:100230000000000000000000000000A900000053C2
:1002400000540055005600000000000000000000AF
:1002500000000000000000AA0000005F00600061D4
:100260000057000000000000000000000000000037
:10027000000000000000005C005D005E00850000E2
:10028000000000000000000000000000000000006E
:1002900000000059005A005B0067000000000000E9
:1002A00000000000000000010001000100010062E8
:1002B00000630058000000000000003A003B003CD2
:1002C000003D003E00440045003F00400041004228
:1002D00000430000000000000000000000000000DB
:1002E000000000000000000000000000000000000E
:1002F00000000000000000000000000000000000FE
:1003000000000000000000000000000000000000ED
:1003100000000000000000000000000000000000DD
:1003200000000000000000000000000000000000CD
:1003300000000001000100010001000100010001B6
:10034000000100000044454255473A20646973614A
:10035000626C65642E0A0044454255473A20656E3A
:1003600061626C65642E0A006D6B5F776865656C11
:100370005F74696D655F746F5F6D6178203D2025E6
:10038000640A006D6B5F776865656C5F6D61785FAF
:100390007370656564203D2025640A006D6B5F7491
:1003A000696D655F746F5F6D6178203D2025640A1B
:1003B000006D6B5F6D61785F7370656564203D20D3
:1003C00025640A006D6B5F696E74657276616C20DE
:1003D0003D2025640A006D6B5F64656C6179203D8A
:1003E0002025640A006D6B5F776865656C5F7469D2
:1003F0006D655F746F5F6D6178203D2025640A0034
:100400006D6B5F776865656C5F6D61785F73706554
:100410006564203D2025640A006D6B5F74696D651D
:100420005F746F5F6D6178203D2025640A006D6BFD
:100430005F6D61785F7370656564203D2025640A97
:10044000006D6B5F696E74657276616C203D20256E
:10045000640A006D6B5F64656C6179203D202564E2
:100460000A000A00257500363A20776865656C5FDA
:1004700074696D655F746F5F6D61783A20000A0082
:10048000257500353A20776865656C5F6D61785F2A
:1004900073706565643A20000A00257500343A20BF
:1004A00074696D655F746F5F6D61783A20000A0052
:1004B000257500333A206D61785F73706565643A25
:1004C00020000A00257500323A20696E7465727644
:1004D000616C286D73293A20000A00257500313AB5
:1004E0002064656C6179282A31306D73293A2000C7
:1004F0000A092D2056616C756573202D0A004D3E4A
:10050000004D25643E20003F0073657420646566DD
:1005100061756C740A00433E20007768657265203F
:1005200064656C74613A20637572736F723D256403
:100530002C20776865656C3D25640A5365652068E5
:100540007474703A2F2F656E2E77696B69706564CD
:1005500069612E6F72672F77696B692F4D6F7573A5
:10056000655F6B6579730A000A092D204D6F7573FD
:10057000656B6579202D0A4553432F713A097175D2
:1005800069740A313A0964656C6179282A31306DE1
:1005900073290A323A09696E74657276616C286D46
:1005A00073290A333A096D61785F73706565640A6F
:1005B000343A0974696D655F746F5F6D61780A35EF
:1005C0003A09776865656C5F6D61785F7370656522
:1005D000640A363A09776865656C5F74696D655FB2
:1005E000746F5F6D61780A0A703A097072696E748F
:1005F0002076616C7565730A643A097365742064CA
:10060000656661756C74730A75703A092B310A64FA
:100610006F776E3A092D310A706775703A092B3180
:10062000300A7067646F776E3A092D31300A0A73A9
:1006300070656564203D2064656C7461202A206DBE
:1006400061785F7370656564202A20287265706523
:100650006174202F2074696D655F746F5F6D6178C0
:10066000290A003F004D3E2000433E20004C2564F7
:100670000A0074696D65725F72656164333228299E
:100680003A202530346C580A006B65796D61705FD3
:10069000636F6E6669672E6E6B726F3A2025580A1B
:1006A000006B6579626F6172645F69646C653A20A2
:1006B00025580A006B6579626F6172645F70726FB2
:1006C000746F636F6C3A2025580A00686F73745F0B
:1006D0006B6579626F6172645F6C65647328293A37
:1006E0002025580A000A092D20537461747573205F
:1006F0002D0A004743433A20352E342E30204156F0
:10070000522D4C4942433A20322E302E3020415651
:10071000525F415243483A20617672350A004F5089
:1007200054494F4E533A204C554641204D4F555356
:10073000454B45592045585452414B455920434F4C
:100740004E534F4C4520434F4D4D414E44204E4B50
:10075000524F20343039360A004255494C443A2031
:1007600020284170722031392032303231290A007C
:100770005649443A20307834443434284D617474F6
:1007800069612044616C2042656E29205049443AD9
:1007900020307835323537285265646F785F776955
:1007A00072656C65737329205645523A2030783053
:1007B0003030310A000A092D2056657273696F6E58
:1007C000202D0A000A092D20436F6E736F6C65207F
:1007D0002D0A4553432F713A09717569740A6D3AB0
:1007E000096D6F7573656B65790A000A092D204DD7
:1007F00061676963202D0A443A0944656275672080
:100800004D65737361676520546F67676C650A583F
:100810003A094D6174726978204465627567204DAC
:100820006F646520546F67676C65202D2053686F77
:1008300077206B65797072657373657320696E20BC
:100840006D617472697820677269640A4B3A094B6A
:100850006579626F61726420446562756720546FC8
:1008600067676C65202D2053686F77206B65797002
:1008700072657373207265706F72740A4D3A094421
:1008800065627567204D6F75736520546F67676C7F
:10089000650A563A0956657273696F6E0A533A09CA
:1008A0005374617475730A433A09416374697661DC
:1008B000746520436F6E736F6C65204D6F64650ABD
:1008C00046312D4631303A09537769746368207494
:1008D0006F204C6179657220302D392028463130E7
:1008E000203D204C30290A302D393A09537769745C
:1008F000636820746F204C6179657220302D390A4D
:1009000047524156453A0953776974636820746FBA
:10091000204C6179657220302028616C7465726E9C
:10092000617465290A423A094A756D7020746F2016
:10093000426F6F746C6F616465720A4553433A0984
:100940004A756D7020746F20426F6F746C6F6164B4
:1009500065722028616C7465726E617465290A4540
:100960003A095072696E7420454550524F4D2053DC
:10097000657474696E67730A4253504143453A097E
:10098000436C65617220454550524F4D0A4E3A09FD
:100990004E4B524F20546F67676C650A000A002562
:1009A00075002E6E6B726F3A20000A002575002EBE
:1009B000737761705F6261636B736C6173685F62B0
:1009C00061636B73706163653A20000A00257500EE
:1009D0002E737761705F67726176655F6573633AE6
:1009E00020000A002575002E6E6F5F6775693A203A
:1009F000000A002575002E737761705F72616C7458
:100A00005F726775693A20000A002575002E7377BA
:100A100061705F6C616C745F6C6775693A20000A85
:100A2000002575002E737761705F7263746C5F725E
:100A30006775693A20000A002575002E737761708A
:100A40005F6C63746C5F6C6775693A20000A0025FF
:100A500075002E636170736C6F636B5F746F5F639F
:100A60006F6E74726F6C3A20000A002575002E7349
:100A70007761705F636F6E74726F6C5F63617073C8
:100A80006C6F636B3A20000A0025303258006B65AA
:100A9000796D61705F636F6E6669672E7261773A18
:100AA00020000A002575002E6D6F7573653A2000D1
:100AB0000A002575002E6B6579626F6172643A20B9
:100AC000000A002575002E6D61747269783A200065
:100AD0000A002575002E656E61626C653A20000A79
:100AE00000253032580064656275675F636F6E661B
:100AF00069672E7261773A20000A002575006465E7
:100B00006661756C745F6C617965723A20003F00B4
:100B10004E4B524F3A206F66660A004E4B524F3A88
:100B2000206F6E0A000A6D6F7573653A206F6666F6
:100B30000A000A6D6F7573653A206F6E0A000A6BC2
:100B40006579626F6172643A206F66660A000A6BAB
:100B50006579626F6172643A206F6E0A000A6D6196
:100B6000747269783A206F66660A000A6D61747261
:100B700069783A206F6E0A000A64656275673A20E8
:100B80006F66660A000A64656275673A206F6E0ACE
:100B9000000A0A4A756D70696E6720746F20626F73
:100BA0006F746C6F616465722E2E2E2000433E20A0
:100BB00000436C656172696E6720454550524F4D28
:100BC0000A006565636F6E6669673A0A00290A0064
:100BD0002575002F002575005D2800256400200084
:100BE000256400200025640020002564007C002589
:100BF000303258006D6F7573656B6579205B627478
:100C00006E7C782079207620685D287265702F616F
:100C1000636C293A205B000A002530325820006BB3
:100C20006579626F6172645F7265706F72743A2089
:100C3000000A0025303258006B6579626F6172647A
:100C40005F7365745F6C65643A20004F6E6573680E
:100C50006F743A2074696D656F75740A0064656C11
:100C60005F6B65795F6269743A2063616E277420F7
:100C700064656C3A20253032580A006164645F6B09
:100C800065795F6269743A2063616E2774206164DC
:100C9000643A20253032580A005B735D004B657959
:100CA000626F6172642073746172742E0A005B5704
:100CB0005D005B535D005B525D005B445D005B4328
:100CC0005D001E035200650064006F0078005F0045
:100CD00077006900720065006C00650073007300A6
:100CE00000001E034D006100740074006900610083
:100CF0002000440061006C002000420065006E008E
:100D000000000403090409025B00030100A0FA09C2
:100D1000040000010301010009211101000122402A
:100D2000000705810308000A09040100010300000F
:100D30000009211101000122B600070582032000ED
:100D40000A09040200020300000009211101000148
:100D5000222200070583032000010705030320006A
:100D6000011201100100000008444D57520100011A
:100D70000200010631FF0974A1010975150026FF63
:100D8000009520750881020976150026FF00952040
:100D900075089102C005010902A10185020901A19E
:100DA000000509190129081500250195087501811B
:100DB000020501093009311581257F9502750881E9
:100DC0000609381581257F950175088106050C0AED
:100DD00038021581257F950175088106C0C005017F
:100DE0000980A101850319012AB700150126B70062
:100DF000950175108100C0050C0901A10185041938
:100E0000012AA002150126A002950175108100C0DB
:100E100005010906A1018505050719E029E7150067
:100E200025019508750181020507190029EF1500B4
:100E3000250195F07501810205081901290595051F
:100E400075019102950175039101C005010906A183
:100E500001050719E029E7150025019508750181AD
:100E6000029501750881010507190029FF15002663
:100E7000FF009506750881000508190129059505EB
:100E800075019102950175039101C00011241FBEE7
:100E9000CFEFDAE0DEBFCDBF04B603FE27C08091FE
:100EA0009B0390919C03A0919D03B0919E0387307A
:100EB000904BA740B04BD1F410929B0310929C032F
:100EC00010929D0310929E0314BE84B7877F84BF47
:100ED0000FB6F894A89580916000886180936000B7
:100EE000109260000FBEE0E0F8E3099511E0A0E089
:100EF000B1E0EAE7FAE502C005900D92A039B1072A
:100F0000D9F723E0A0E9B1E001C01D92AB39B207E7
:100F1000E1F70E9461270C943B2D0C940000FF9395
:100F2000EF93E0919001F0919101309709F00995CC
:100F3000EF91FF910895FC018591803011F0EFDF72
:100F4000FBCF0895FF27E0E230E247FF0CC0419558
:100F500097FF09C0EDE26095709580959095611DB1
:100F6000711D811D911D27FF02C0219530E350E2C4
:100F7000AA27660F771F881F991FAA1FA41710F0B2
:100F8000A41B63955A95A9F7AA3008F0A95FA05D44
:100F9000AF93F395611571058105910541F7ED3228
:100FA00011F4EF93F395F21718F43F93F395FBCFF9
:100FB0008F91B5DFFA95E1F70895E991F99185915F
:100FC000803021F0853219F0AADFF9CF089520E0B2
:100FD000E89455915532C1F3503311F4689455910A
:100FE0005A3348F4505390F3220F022E220F220F4F
:100FF000200D250FF4CF0EF4219589919991533648
:1010000019F3533729F1533559F1BC018827992732
:10101000E8945C3621F489919991689455915436FD
:1010200039F446EF7EF077FF0DC08FEF9FEF0AC0D7
:1010300055374AE039F0583540E121F0523642E068
:1010400009F00895FF93EF937DDFEF91FF91B7CF04
:10105000FF93EF93FC0181918030B9F360DFFBCF08
:10106000FF93EF9368DFF1CFDF93CF93CDB7DEB778
:101070002596A3DFCF91DF91089508950C943D0844
:101080000C943D080E9477090C94E508CF93DF93F8
:10109000CDB7DEB72B970FB6F894DEBF0FBECDBF2E
:1010A00083E78093CE00FE0131968BE0DF011D9235
:1010B0008A95E9F7CE010C96DF0140E050E0BA01D5
:1010C0002091C80027FD0AC04F5F5F4F6F4F7F4FD1
:1010D000413127E252076105710590F32091CE005E
:1010E0002D93A817B90761F78B85803E91F4A2E98B
:1010F000B1E09E01255F3F4F818140E8849FC001A0
:1011000011244081842B8D939D933296E217F3072F
:1011100099F70E947F0981E02B960FB6F894DEBF05
:101120000FBECDBFDF91CF910895E82FF0E0EE0F15
:10113000FF1FEE56FE4F808191810895CF92DF927E
:10114000EF92FF920F931F93CF93DF938AE891E082
:101150000E949B0782E9E82E81E0F82EC0E0D0E0F3
:1011600095E8C92E91E0D92E0CE711E0DF93CF93DB
:10117000DF92CF920E94340882E891E00E949B07A0
:10118000F701819191917F010E94FB099F938F93B9
:101190001F930F930E9434088AE791E00E949B07F7
:1011A00021968DB79EB708960FB6F8949EBF0FBED6
:1011B0008DBFC530D105D1F6DF91CF911F910F9131
:1011C000FF90EF90DF90CF900895ECECF0E010826C
:1011D000108288E18093C90086E08093CA00089558
:1011E0001F920F920FB60F9211242F933F934F939C
:1011F0008F939F93EF93FF9380919D0190E09C01CB
:101200002F5F3F4F40919C01421741F03091CE003B
:10121000FC01E256FE4F308320939D01FF91EF9138
:101220009F918F914F913F912F910F900FBE0F90F3
:101230001F901895519A599A80B3806380BB81B3EF
:10124000806381BB08950E943E080C941A0981E0D6
:10125000089581E008950C94290908950C942D09AE
:101260001F93CF93DF9300D000D01F92CDB7DEB78E
:1012700049835A836B833091CA0289819A813111E3
:1012800014C0662359F0222349F00E940F21182F21
:10129000682F89819A810E94B82003C00E94E320B0
:1012A000182F69817A81812F04C00E940F216981E2
:1012B0007A810F900F900F900F900F90DF91CF9148
:1012C0001F910C94220AFC01262F408151816281DA
:1012D000738184810C943009CF93DF93EC0160E03B
:1012E0000E946309BE01DF91CF910C942E090E94E8
:1012F0009322811102C00E943A230C9423090C947A
:10130000400808950E94C41B0E9481092FEF84E3C6
:101310009CE0215080409040E1F700C000000C9418
:10132000F6240F931F93CF93DF93EC0161E00E94AB
:1013300063098C01BE010E942B09882309F442C075
:10134000BE01C8010E94CE148823E1F1BE01C8018C
:101350000E9420158823B1F1BE01C8010E944B16DE
:10136000882381F18A81882331F101308CE51807C7
:1013700051F00F3D8CE51807D9F001151C45D9F443
:101380000E9482091FC080916103C82FC095C1705F
:10139000C0FB80F980936103CC2329F087E593E0BB
:1013A0000E949B070FC085E493E00E949B070BC03F
:1013B0000E943A2307C0CE01DF91CF911F910F9178
:1013C0000C942709C0E08C2FDF91CF911F910F91D2
:1013D00008958295982F937344E0949F900111246F
:1013E0008C7C86958695282B822F8575880F2A7A86
:1013F0002695822B0895CF93DF93D92F0E94E90978
:10140000C82F8D2F0E94E9092C2F30E0322F222780
:10141000A901482BCA01DF91CF91089508950C943A
:101420000E0A81E008950C94110ACF93C82F0E94F0
:101430000F0A8C2F0E94130ACF91089580E090E04C
:101440000895089526E4829FC0011124FC012EE036
:10145000729FE00DF11D1124E60FF11DEE0FFF1F2D
:10146000EF55FE4F859194910895880F991FFC01C7
:10147000E859FC4F859194910895CF93DF930E9492
:10148000220A0E94550BEC018115904508F041C0DD
:10149000C11580E4D80708F0D1C0C83ED10510F5C9
:1014A000C03ED10508F0FDC0C83AD10578F4C53A70
:1014B000D10508F0A2C0C130D10509F4F2C008F48A
:1014C000EEC0C430D10508F0ECC0E9C0CF3BD10577
:1014D00008F49BC0C03CD10508F4E1C0CE01805C9B
:1014E00091099EC0C11590E2D90758F4C11521E0B9
:1014F000D20708F0D6C0CD3ED10508F4D0C0D065E3
:10150000D0C0C11580E3D80708F08EC0CE019F700F
:1015100087C0C11595E5D90708F043C0C11524E57A
:10152000D20708F0A2C0C11582E5D80708F5C11599
:1015300091E5D90708F085C0CE0174E096958795AE
:101540007A95E1F783709C2F937021E030E002C020
:10155000220F331F9A95E2F73C68382BCF70C6955F
:10156000C69580E2C89FE0011124C22BD32B99C0FD
:101570009E01237033278C2F86958695C115D34500
:1015800008F064C0C1E0D0E002C0CC0FDD1F2A9596
:10159000E2F720E2829FC0011124C82BD92BDC681E
:1015A00080C0C11529E5D207A0F4C11588E5D80788
:1015B00008F060C0C11596E5D90708F070C08C2FFF
:1015C0000E94E90B8F71C82FD0E0DC2FCC27D062AE
:1015D00068C0C1152AE5D20708F451C0CE01905663
:1015E0008115904208F05BC08D2F8F710E94E90B2E
:1015F000DD27D0628F71D82B54C0C55AD0E0CD5BA7
:10160000DE4FC881D0E0D0644CC0C85AD0E0CC0FC7
:10161000DD1FCB5EDE4F0990D881C02DD46441C060
:101620000E94350AEC013DC0CE019927D3FF03C0CB
:10163000EC01D86C36C0EC01D06C33C0DF70D06ADE
:1016400030C0DC2FCC27C16FD06A2BC0C1E0D0E006
:1016500002C0CC0FDD1F2A95E2F720E2829FC00175
:101660001124C82BD92BDA681CC0DC2FCC27C46FFF
:10167000D06A17C0DC2FCC27C06FD06A12C08C2F65
:101680008F700E94E90B94E0D695C7959A95E1F783
:10169000CF70D0E0DC2FCC27D069C82B02C0C0E0CF
:1016A000D0E0CE01DF91CF9108958238910569F1A4
:1016B000B0F48133910509F46DC048F48932910585
:1016C00009F463C08A32910509F469C0089585332D
:1016D000910509F455C089339105B9F00895833E09
:1016E000910569F138F4803E9105B1F0823E910593
:1016F00009F10895863E9105A9F1873E9105B9F15A
:10170000843E910509F064C023C020918C0320FD24
:101710004FC021FD4DC0089580918C0380FD44C0D1
:1017200080918D0380FF44C080918C0384FD42C072
:1017300083EE4DC080918C0382FF38C0F5CF80913D
:101740008C0382FD33C080918D0380FD31C0ECCFCE
:1017500080918D0381FF32C080918C0384FD2AC06B
:1017600087EE35C080918C0383FF26C0F5CF809132
:101770008C0383FD21C080918D0381FD1FC0ECCFC0
:1017800080918C0385FD1CC01DC080918C0385FD5C
:1017900019C016C080918C0386FD16C017C08091B9
:1017A0008C0386FD13C010C089E311C082EE0FC008
:1017B00080EE0DC080E00BC086EE09C084EE07C04D
:1017C00089E205C085E303C08AE201C081E390E0BD
:1017D000089590918C0392FF0DC0282F2871283016
:1017E00019F4877F846006C0282F2471243011F4F7
:1017F0008B7F886093FF0DC0282F2871283119F442
:10180000877E846106C0282F2471243111F48B7ED9
:10181000886120918D0320FF0DC0382F387138303A
:1018200019F4877F816006C0382F3171313011F48F
:101830008E7F886021FF0DC0282F2871283119F470
:10184000877E816106C0282F2171213111F48E7E9F
:10185000886194FD877E089588E695E00E949B0745
:101860001F9281E08F931F9285E08F938AE195E02C
:101870009F938F930E9434080F900F900F900F90BA
:101880000F900F9008958330E9F128F4813061F0D2
:10189000823009F10895853009F462C008F449C026
:1018A000863009F474C0089580910701262F30E036
:1018B000280F311D2F3F310524F4680F6093070175
:1018C00003C08FEF80930701809107011F928F93D0
:1018D00083E594E072C080910601262F30E0280F46
:1018E000311D2F3F310524F4680F6093060103C0BA
:1018F0008FEF80930601809106011F928F9381E400
:1019000094E05BC080910501262F30E0280F311D47
:101910002F3F310524F4680F6093050103C08FEF5A
:1019200080930501809105011F928F938EE294E0D0
:1019300044C080910401262F30E0280F311D2F3F35
:10194000310524F4680F6093040103C08FEF809386
:101950000401809104011F928F9389E194E02DC0CE
:1019600080910101262F30E0280F311D2F3F3105D6
:1019700024F4680F6093010103C08FEF809301018D
:10198000809101011F928F9380E094E016C08091B6
:101990000001262F30E0280F311D2F3F310524F4A0
:1019A000680F6093000103C08FEF80930001809166
:1019B00000011F928F9385EE93E09F938F930E9477
:1019C00034080F900F900F900F900895833081F19D
:1019D00028F4813059F08230D1F00895853009F42F
:1019E00049C0B8F1863009F456C0089580910701C6
:1019F000681720F4861B8093070102C0109207012C
:101A0000809107011F928F9386ED93E054C08091DF
:101A10000601681720F4861B8093060102C010920D
:101A20000601809106011F928F9384EC93E043C0DE
:101A300080910501681720F4861B8093050102C080
:101A400010920501809105011F928F9381EB93E025
:101A500032C080910401681720F4861B8093040132
:101A600002C010920401809104011F928F938CE9AF
:101A700093E021C080910101681720F4861B8093B8
:101A8000010102C010920101809101011F928F9308
:101A900083E893E010C080910001681720F4861B52
:101AA0008093000102C010920001809100011F92FA
:101AB0008F9388E693E09F938F930E9434080F9052
:101AC0000F900F900F900895CF93C82F1F928F9370
:101AD0008DE696E09F938F930E94340881E090E01A
:101AE000A0E0B0E0BC01CD0104C0660F771F881FE5
:101AF000991FCA95D2F70E94BA1F0F900F900F90AE
:101B00000F90CF910C94C41BCF93DF93482F50E0DC
:101B1000FA013597EF33F10508F054C2EA5AFF4F46
:101B20000C94DF2C82EC9BE00E949B078EEF9AE0E6
:101B30000E949B070E94A2221F928F938BEF9AE034
:101B40009F938F930E94340889EF9AE00E949B072D
:101B50000E949E22C82F86EE9AE00E949B071F9249
:101B6000CF9381EE9AE09F938F930E9434088FED7C
:101B70009AE00E949B0785ED9AE00E949B078C2FBC
:101B800081701F928F9382ED9AE09F938F930E94B2
:101B9000340880ED9AE00E949B0786EC9AE00E9450
:101BA0009B07C1FB882780F91F928F9383EC9AE0F3
:101BB0009F938F930E94340881EC9AE00E949B07C8
:101BC00085EB9AE00E949B07C2FB882780F91F9251
:101BD0008F9382EB9AE09F938F930E94340880EB5F
:101BE0009AE00E949B0787EA9AE00E949B07C3FB4A
:101BF000CC27C0F91F92CF9384EA9AE09F938F93EA
:101C00000E94340882EA9AE00E949B070E94A62262
:101C1000EC018EE89AE00E949B07DF93CF9389E85E
:101C20009AE09F938F930E94340887E89AE00E947D
:101C30009B078EE69AE00E949B078C2F81701F9273
:101C40008F938BE69AE09F938F930E9434088DB711
:101C50009EB780960FB6F8949EBF0FBE8DBF89E6E3
:101C60009AE00E949B0782E59AE00E949B07C1FBD5
:101C7000882780F91F928F938FE49AE09F938F9328
:101C80000E9434088DE49AE00E949B078BE39AE05F
:101C90000E949B078D2F81701F928F9388E39AE09B
:101CA0009F938F930E94340886E39AE00E949B07DB
:101CB00084E29AE00E949B07D695D1701F92DF9331
:101CC00081E29AE09F938F930E9434088FE19AE01B
:101CD0000E949B078DE09AE00E949B07C2FB882729
:101CE00080F91F928F938AE09AE09F938F930E94CE
:101CF000340888E09AE00E949B0786EF99E00E94F2
:101D00009B07C3FB882780F91F928F9383EF99E08D
:101D10009F938F930E94340881EF99E00E949B0764
:101D200087EE99E00E949B07C4FB882780F91F92E9
:101D30008F9384EE99E09F938F930E94340882EEF4
:101D400099E00E949B0780ED99E00E949B07C5FBEC
:101D5000882780F91F928F938DEC99E09F938F9342
:101D60000E9434088BEC99E00E949B078FEA99E06F
:101D70000E949B07C6FB882780F91F928F938CEAED
:101D800099E09F938F930E9434088DB79EB78096F9
:101D90000FB6F8949EBF0FBE8DBF8AEA99E00E94ED
:101DA0009B0782EA99E00E949B07C7FBCC27C0F9FA
:101DB0001F92CF938FE999E09F938F930E943408ED
:101DC0008DE999E00E949B070F900F900F900F9064
:101DD00006C081EB9BE00E949B070E943A23C1E072
:101DE000F6C08BEE97E074C080916103817F8E7F97
:101DF0008093610384EC97E00E949B078DEA9BE04F
:101E00000E949B0781E080939F02E9CF81E99BE0DC
:101E10000E949B070E948209E2CF80916103C82F34
:101E2000C095C170C0FB80F980936103CC2319F089
:101E300085E89BE0B9C088E79BE00E949B07809102
:101E40006103897F877F80936103C9CF909161038C
:101E500091FBCC27C0F981E0C827892FC0FB81F90D
:101E600080936103CC2319F08BE69BE027C08DE5BE
:101E70009BE02EC09091610392FBCC27C0F981E0DA
:101E8000C827892FC0FB82F980936103CC2319F006
:101E90008EE49BE013C08EE39BE01AC09091610337
:101EA00093FBCC27C0F981E0C827892FC0FB83F9B9
:101EB00080936103CC2351F082E39BE00E949B0757
:101EC0008091610381608093610381C085E29BE022
:101ED0000E949B0784CF85EB97E00E949B0780E7D9
:101EE00097E00E949B0789E597E00E949B078EE19F
:101EF00097E00E949B0783EF96E0EACF85EE96E09D
:101F00000E949B070E9481161F928F938BEC96E094
:101F10009F938F930E943408809114011F928F9396
:101F200084EB96E09F938F930E94340880918703FF
:101F30001F928F9381EA96E09F938F930E943408BB
:101F400080918C0387FB882780F91F928F9389E803
:101F500096E09F938F930E9434080E94B5249F932C
:101F60008F937F936F9382E796E09F938F930E9466
:101F700034088DB79EB746960FB6F8949EBF0FBE35
:101F80008DBF2DCF0E94C41B90918C0397FBCC2753
:101F9000C0F981E0C827892FC0FB87F980938C03A3
:101FA000CC2329F08BE19BE00E949B0710C080E1CD
:101FB0009BE08ECF895303C08D5101C080E00E9409
:101FC000640D0DCF8EE09BE00E949B07C0E08C2F3C
:101FD000DF91CF91089580E008950C94EB0F8E511E
:101FE0008A3030F4E82FF0E0EA5BFE4F80810895FC
:101FF00080E00895CF93C82F80919F02813059F0DF
:1020000020F0823009F445C039C10E94B5218232E6
:1020100009F036C104C00E94B521823261F48C2FD0
:102020000E94ED0F811104C08C2F0E94840D2FC0DF
:1020300081E090E02CC08C2F0E94EB0F811126C014
:10204000C431E1F070F4CB3081F0C031D1F40E94A2
:102050002C0C85E696E00E949B0782E080939F020D
:1020600015C0C93259F0C83361F484EC97E00E947E
:102070009B0789E696E00E949B0708C010929F028A
:1020800001C183E696E00E949B07FCC081E081705D
:10209000FBC0C43228F5CE3108F0C1C0CB30A1F16D
:1020A000D0F4C73009F0D0C08EE18093070182E3FD
:1020B000809306018AE08093050184E18093040106
:1020C00088E08093010188E28093000189E095E037
:1020D0000E949B07BCC0C33149F1C431C1F0B4C0F8
:1020E000CB3409F4A6C028F4C93289F0C83361F0B2
:1020F000ABC0C13509F49BC0C23509F496C0CE34DB
:1021000009F0A2C06AE09BC00E942C0CA0C0809184
:102110009E02882319F010929E0299C086E195E0F4
:102120000E949B0781E080939F02AEC080EF94E005
:102130000E949B078EED94E00E949B07809107010F
:102140001F928F938BED94E09F938F930E9434089E
:1021500089ED94E00E949B0787EC94E00E949B0726
:10216000809106011F928F9384EC94E09F938F934C
:102170000E94340882EC94E00E949B0783EB94E079
:102180000E949B07809105011F928F9380EB94E042
:102190009F938F930E9434088EEA94E00E949B07DD
:1021A0008DE994E00E949B07809104011F928F9318
:1021B0008AE994E09F938F930E94340888E994E021
:1021C0000E949B0783E894E00E949B078091010195
:1021D0001F928F9380E894E09F938F930E9434081E
:1021E0008EE794E00E949B0787E694E00E949B079D
:1021F000809100011F928F9384E694E09F938F93C8
:102200000E94340882E694E00E949B078DB79EB737
:1022100048960FB6F8949EBF0FBE8DBF18C08C2F86
:102220000E94EF0F80939E0212C061E003C061E044
:1022300006C06AE080919E020E94430C08C0809113
:102240009E020E94E60C03C087E095E013C08091D7
:102250009E02882369F01F928F9381E095E09F93FF
:102260008F930E9434080F900F900F900F9004C02E
:102270008EEF94E00E949B0781E006C010929F02BF
:1022800080E002C080E003CFCF9108958091A60244
:1022900080FF0BC06091050185E0689FB0011124AB
:1022A00075956795759567952BC081FF09C06091FD
:1022B000050185E0689FB00111247595679520C0E0
:1022C00082FF07C06091050185E0689FB00111247D
:1022D00017C09091A5029923D1F06091040196173F
:1022E00088F72091050185E0289F90011124929F95
:1022F000A001939F500D112470E0CA010E94CB2CC5
:102300006038710540F46115710519F406C065E087
:1023100070E0862F08958FE7089581E008958091F9
:10232000A60280FF08C06091010170E07595679575
:102330007595679521C081FF06C06091010170E02D
:102340007595679519C082FF04C06091010170E026
:1023500010C09091A402992399F060910001961702
:10236000A0F780910101899FC001112470E00E94B3
:10237000CB2C6038710540F46115710519F406C065
:1023800061E070E0862F08958FE7089581E0089559
:102390008D3E21F40E944611819504C08E3E29F4A1
:1023A0000E9446118093AA0208958F3E21F40E9454
:1023B0004611819504C0803F29F40E944611809304
:1023C000A9020895893F19F40E948F1105C08A3F20
:1023D00031F40E948F1181958093AB0208958B3F59
:1023E00021F40E948F11819504C08C3F29F40E9432
:1023F0008F118093AC0208959FE0980F983078F485
:1024000021E030E0A90102C0440F551F9A95E2F780
:10241000CA019091A802892B8093A80208958D3F4C
:1024200021F48091A60281600BC08E3F21F480913F
:10243000A602826005C08F3F29F48091A6028460C5
:102440008093A60208958D3E39F49091AA0297FFD9
:1024500035C01092AA0259C08E3E29F49091AA026A
:102460001916BCF32BC09091A9028F3E29F497FF57
:1024700025C01092A90249C0803F19F41916CCF367
:102480001DC09091AB02893F29F41916BCF410923B
:10249000AB023BC08A3F19F497FF10C0F8CF8B3FC7
:1024A00039F49091AC0297FF09C01092AC022DC094
:1024B0008C3F21F49091AC021916BCF39FE0980F69
:1024C000983080F421E030E0A90102C0440F551F8C
:1024D0009A95E2F7CA0180959091A802892380938A
:1024E000A80213C08D3F21F48091A6028E7F0BC0FD
:1024F0008E3F21F48091A6028D7F05C08F3F29F485
:102500008091A6028B7F8093A6028091A9028111FF
:1025100006C08091AA02811102C01092A50280918A
:10252000AB02811106C08091AC02811102C01092F1
:10253000A40208958091610383FF7EC084EF9BE035
:102540000E949B078091A8021F928F938FEE9BE0C1
:102550009F938F930E9434088DEE9BE00E949B070F
:102560008091A902282F082E000C330B3F938F93E4
:102570008AEE9BE09F938F930E94340888EE9BE045
:102580000E949B078091AA02282F082E000C330B73
:102590003F938F9385EE9BE09F938F930E94340827
:1025A00083EE9BE00E949B078091AB02282F082EB0
:1025B000000C330B3F938F9380EE9BE09F938F93A0
:1025C0000E9434088EED9BE00E949B078091AC0234
:1025D000282F082E000C330B3F938F938BED9BE03D
:1025E0009F938F930E94340888ED9BE00E949B0785
:1025F0008091A5021F928F9385ED9BE09F938F930F
:102600000E94340883ED9BE00E949B078091A60204
:102610001F928F9380ED9BE09F938F930E943408CD
:102620008DEC9BE00E949B078DB79EB74C960FB632
:10263000F8949EBF0FBE8DBF0E94A9242091A902CD
:10264000211104C02091AA02222321F09093A30219
:102650008093A2022091AB02211104C02091AC0210
:10266000222321F09093A1028093A00287EA92E0B6
:102670000C94E216EF92FF920F931F93CF93DF9388
:1026800000D000D000D0CDB7DEB786E0E7EAF2E0B8
:10269000DE01119601900D928A95E1F7E090A90272
:1026A000F090AA020091AB021091AC021092A90224
:1026B0001092AA021092AB021092AC02E11003C079
:1026C000FF2009F45DC08091A2029091A3020E94B4
:1026D000C124AC019091A502992339F02091060103
:1026E00030E02417350758F04BC0209107018AE0ED
:1026F000289F900111242417350718F041C09F3FEF
:1027000019F09F5F9093A502EE2061F00E944611A0
:102710001E1414F09FEF01C091E0989F902D11249A
:102720009093A902FF2061F00E9446111F1414F03B
:102730009FEF01C091E0989F902D11249093AA02E1
:102740003091A9023323E1F02091AA022223C1F0A3
:1027500045EB3403C0011124992319F09093A90289
:1027600003C081E08093A90235EB2303C00111244B
:10277000992319F09093AA0203C081E08093AA02E2
:10278000011103C0112309F45DC08091A002909152
:10279000A1020E94C124AC019091A402992339F0B6
:1027A0002091020130E02417350758F04BC02091EA
:1027B00003018AE0289F900111242417350718F09F
:1027C00041C09F3F19F09F5F9093A402002361F0E6
:1027D0000E948F11101614F09FEF01C091E0989F96
:1027E000902D11249093AB02112361F00E948F1160
:1027F000111614F09FEF01C091E0989F902D1124C5
:102800009093AC023091AB023323E1F02091AC0203
:102810002223C1F045EB3403C0011124992319F0A0
:102820009093AB0203C081E08093AB0235EB2303AE
:10283000C0011124992319F09093AC0203C081E0E8
:102840008093AC028091A90281110BC08091AA02F1
:10285000811107C08091AB02811103C08091AC024D
:1028600081110E949A12EB82FC820D831E8386E006
:10287000FE013196A7EAB2E001900D928A95E1F748
:1028800026960FB6F894DEBF0FBECDBFDF91CF9175
:102890001F910F91FF90EF900895E7EAF2E086E034
:1028A000DF011D928A95E9F71092A5021092A40209
:1028B0001092A60208950F931F93CF93DF93C42F16
:1028C000D22FFC0182818823C9F04093AF020E947D
:1028D000A9249093AE028093AD0280E28C0F8830E1
:1028E00008F057C0C77081E001C0880FCA95EAF7A9
:1028F000DF91CF911F910F910C9437198091AF0206
:10290000481330C08091AD029091AE020E94C12464
:10291000883C910538F510E21D0FCD17B9F080E223
:102920008C0F883040F4C77081E001C0880FCA95D1
:10293000EAF70E943E19183028F581E09D2F977024
:1029400001C0880F9A95EAF70E943719802F0E94DC
:102950002E191830F0F4D77081E001C0880FDA9595
:10296000EAF70AC080E28C0F883098F4C77081E0E3
:1029700001C0880FCA95EAF7DF91CF911F910F919F
:102980000C943E19802FDF91CF911F910F910C94E1
:102990002E19DF91CF911F910F9108950F939C01F4
:1029A000CB01243F4CE5340731F188F4293DFCE5A7
:1029B0003F07D9F02A3D4CE5340779F1283D3C45E5
:1029C000A9F506E221EE41EE68ED7CE52BC0263F3D
:1029D000FCE53F07E1F0A8F0273F3C4539F507E269
:1029E00025EE46EE67EF7CE51DC007E225EE45EEDD
:1029F00069ED7CE517C006E221EE40EE64EF7CE570
:102A000011C007E225EE44EE65EF7CE50BC006E25F
:102A100021EE42EE66EF7CE505C008E221E045EEDE
:102A20006AED7CE50E945B1480E008C0FC018281B5
:102A3000882319F01092AF0201C081E00F91089530
:102A4000CF93DF93EC01FB018281882309F41FC13E
:102A5000C230FCE5DF0708F41BC1C6319CE5D9078D
:102A600038F09E012B5F3C452930310508F010C13C
:102A70000E94A62290938D0380938C03C031ECE5D5
:102A8000DE0709F4C3C008F041C0C8308CE5D807A0
:102A900009F49AC0F0F4C430ECE5DE0709F487C00D
:102AA00068F4C2308CE5D80709F477C0C330DC4540
:102AB00009F0E3C080918C03826076C0C630ECE5FB
:102AC000DE0709F46EC008F07BC080918C0388603B
:102AD0006BC0CC308CE5D80709F485C068F4CA30E7
:102AE000ECE5DE0709F474C008F079C00E94C41B4D
:102AF00080918C03806858C0CE308CE5D80709F4EB
:102B000076C008F07FC080918C038BC0CC3FECE591
:102B1000DE0709F44FC018F5C3318CE5D80709F476
:102B20007DC078F4C131ECE5DE0709F473C0C23131
:102B3000DC4509F0A2C00E94C41B80918C038F77F2
:102B400033C0C5318CE5D80709F472C008F486C0DB
:102B5000CB3FDC4509F091C080918D033EC0C1158B
:102B6000FDE5DF0709F45FC058F4CE3F9CE5D907C7
:102B700009F444C008F43FC080918D0382602DC0E9
:102B8000C230FDE5DF0709F475C008F45DC0C3304D
:102B9000DD4509F072C080E06EC080918C038160D9
:102BA00003C080918C03806180938C0366C0809108
:102BB0008C0311C080918D03826080938D035DC072
:102BC00080918C038062F0CF80918C038064ECCF85
:102BD00080918C0388608460E7CF8160EECF809124
:102BE0008C038E7FE1CF80918C038D7FDDCF809130
:102BF0008C03877FD9CF80918D0318C080918D037E
:102C00008D7FDBCF80918C038F7ECECF80918C0324
:102C10008F7DCACF80918C038F7BC6CF80918C0330
:102C2000877F8B7FC1CF80918D038D7F8E7FC5CFB6
:102C300080918C0382FB222720F991E0922790FB60
:102C400082F990FB83F9B0CF80918D03982F9095F6
:102C500091708E7F892B90FB81F9AFCF0E94C41BAE
:102C600080918C0387FB222720F991E0922790FB2B
:102C700087F99ACF81E00E943C2380918C03909148
:102C80008D030E94B7220E94C41B80E001C081E036
:102C9000DF91CF910895CF93DF9386319C4541F525
:102CA000EB010E94B521982F8A8120910801309173
:102CB0000901882379F09A7A81E009F480E0809311
:102CC000B002911102C069E201C065E3C9010E942E
:102CD000F9230AC08091B002811102C069E201C0EB
:102CE00065E3C9010E9404240E94122280E001C011
:102CF00081E0DF91CF9108959093B6028093B50261
:102D00000895E091B502F091B602309721F001905C
:102D1000F081E02D099480E00895EF92FF921F93D7
:102D2000CF93DF93FC01A091B502B091B60210974A
:102D300009F442C080911401882341F080918C03F2
:102D400087FF04C08081818385E08083EF01129634
:102D5000ED91FC911397CE0109958091610382FF5B
:102D60002BC080FF04C08FE19CE00E949B0718E00D
:102D700089E1E82E8CE0F82E8091610380FF0BC082
:102D800088811F928F93FF92EF920E9434080F90D8
:102D90000F900F900F90115021961111EDCF80914F
:102DA000610380FF09C087E19CE0DF91CF911F9113
:102DB000FF90EF900C949B07DF91CF911F91FF90B4
:102DC000EF900895E091B502F091B602309739F096
:102DD00022E0DC012C930480F581E02D0994089514
:102DE0002091B3023091B4022817390771F0909303
:102DF000B4028093B302E091B502F091B60230972D
:102E000021F00680F781E02D099408952091B10208
:102E10003091B2022817390771F09093B202809373
:102E2000B102E091B502F091B602309721F0008432
:102E3000F185E02D099408950E94B5246093C6029F
:102E40007093C7028093C8029093C9026093C20234
:102E50007093C3028093C4029093C502089585B70E
:102E6000806885BF85B7806885BF089581E0089533
:102E70000C94361708950C943A170C943A170C9446
:102E80003D170C943A170C9441170C943A170E9472
:102E90002F178EEF96E20E9407250E9445170C948B
:102EA00043170E94A0240E9442080E940C250C9403
:102EB0003F17CF93C82F8091610382FF1EC080FF10
:102EC00004C088E39CE00E949B078091610380FF1F
:102ED0000CC01F92CF9383E39CE09F938F930E943B
:102EE00034080F900F900F900F908091610380FF36
:102EF00004C081E39CE00E949B078C2FCF910C942F
:102F0000150A6F927F928F929F92AF92BF92CF924B
:102F1000DF92EF92FF920F931F93CF93DF93CDB782
:102F2000DEB72A970FB6F894DEBF0FBECDBF0E9462
:102F30003B170E943A170E94460881110E941C17F5
:102F400038EB832E32E0932E00E010E0C02E802F6D
:102F50000E9495085C01F401619071904F01682610
:102F6000792661147104B1F40F5F1F4F053011050C
:102F700069F78FEF89838A831B820E94A92481606D
:102F8000782F9D838C8349815A816B818D810E942A
:102F90003B183AC08091610381FD0E949E08D12CAC
:102FA000EE24E394F12CC3018E219F21892B29F17A
:102FB0000E9438178823A9F0DE82CF82AE20BF207E
:102FC00081E0AB2809F480E088870E94A924816011
:102FD000782F9A8789874E815F8168858A850E94CC
:102FE0003B18000F111FF801E854FD4F80819181BB
:102FF000E826F926F182E08207C0D394EE0CFF1C8C
:10300000FEE0DF12D0CFB0CF0E943A130E948116AB
:103010009091B7028917D1F00E9481168093B70270
:103020002A960FB6F894DEBF0FBECDBFDF91CF91C9
:103030001F910F91FF90EF90DF90CF90BF90AF90D6
:103040009F908F907F906F900C9459172A960FB68F
:10305000F894DEBF0FBECDBFDF91CF911F910F91CE
:10306000FF90EF90DF90CF90BF90AF909F908F90A8
:103070007F906F900895CF92DF92FF920F931F93EE
:10308000CF93DF93CDB7DEB72B970FB6F894DEBFA3
:103090000FBECDBF7A878B87F42E052F162FCA84DB
:1030A000DB8461110E94D521FE01319686E0DF01AB
:1030B0001D928A95E9F7F9820A831B83DD82CC820F
:1030C0000E949821882319F082E00E947A220E94AF
:1030D0007F2181110E94042249815A816B817C8168
:1030E0008D819E810E947D1E2B960FB6F894DEBFC7
:1030F0000FBECDBFDF91CF911F910F91FF90DF9059
:10310000CF900895FC01808191810E945121089502
:10311000CF93882309F455C0C82F8CEF8C0F813AC8
:10312000F8F48C2F0E94FA0F81114BC06C2F809104
:103130000801909109010E945723882349F06C2FC0
:1031400080910801909109010E9404240E9412229A
:103150006C2F80910801909109010E94F9230CC005
:1031600080E28C0F883058F4C77081E001C0880F6E
:10317000CA95EAF70E94B821CF910C941222EBE590
:10318000EC0FE33040F4F0E0E258FE4F808190E035
:10319000CF910C94F016E8E5EC0FE73150F4F0E035
:1031A000EE0FFF1FE05BFE4F80819181CF910C9469
:1031B0000617CD3E30F08C2F0E94C811CF910C9491
:1031C0009A12CF910895882389F19CEF980F913A34
:1031D00040F4682F80910801909109010E94042415
:1031E0000DC090E2980F983058F4877091E001C0BC
:1031F000990F8A95EAF7892F0E94BE210C9412221A
:103200009BE5980F933020F480E090E00C94F0164A
:1032100098E5980F973120F480E090E00C94061721
:103220008D3E20F00E9423120C949A1208951F9351
:10323000CF93DF93182FEB010E948818209741F05D
:103240008FE99FE00197F1F700C000002197F6CFCA
:10325000812FDF91CF911F910C94E318893319F0DE
:1032600060E070E002C060E570E00C9417198823FC
:1032700021F00E94B8210C9412220895882321F095
:103280000E94BE210C9412220895CF92DF92EF92F9
:10329000FF920F931F93CF93DF937C01062FC72FCD
:1032A000FC01D281158112951F700E94AE218823E6
:1032B00099F0DD2389F08C2F807F803421F080E22B
:1032C000800F883048F082E00E947A220E94AE216E
:1032D00091E0D82ED92601C0D12CCC2EC2948FE0FB
:1032E000C8228C2D90E0FC01EB56FF4F0C94DF2C94
:1032F0008C2F807FCF70882311F0C295C07FDD2393
:1033000099F0CC2309F48DC180E2800F883010F051
:10331000011104C08C2F0E94B82103C08C2F0E9481
:10332000C8210E9412227DC1802F0E94E318CC2365
:1033300009F49CC180E2800F883010F0011104C0B4
:103340008C2F0E94BE2103C08C2F0E94CE210E9490
:1033500012228CC18C2F807FCF70803211F0C295E9
:10336000C07F002319F00130C9F022C0DD2371F0C5
:10337000112341F0113031F40E94E8218C2B0E947E
:10338000F02174C10E94E8218C2B1DC0112319F07B
:10339000113009F46BC10E94042225C0DD2321F005
:1033A000163008F063C10EC0153008F05FC11BC0B5
:1033B000DD2361F0112331F0F701858180FF31C1F8
:1033C0008F7085838C2F0E94371950C1112359F0BB
:1033D000093309F037C1FFEF27EE83E0F1502040B9
:1033E0008040E1F72DC18C2F0E943E193FC18C2FE8
:1033F00086958695837019F0813061F037C1DD23A1
:1034000021F0802F9C2F937002C080E090E00E94FA
:10341000F01634C1DD2321F0802F9C2F937002C061
:1034200080E090E00E94061729C1802FDD2319F06B
:103430000E94C81102C00E9423120E949A121EC14B
:103440008C2F837009F045C0D11114C1402F4295D3
:1034500046954770440F440F602F6F70862F90E0A1
:10346000A0E0B0E0042E04C0880F991FAA1FBB1F64
:103470000A94D2F704FF10C00FE010E020E030E023
:1034800004C0000F111F221F331F4A95D2F7009569
:1034900010952095309503C000E010E09801C69586
:1034A000C695C370BC01CD01602B712B822B932B71
:1034B000C23049F058F4C13019F00E94CE1FDAC072
:1034C0000E94BC1FD7C00E94E01FD4C00E94BA1F38
:1034D000D1C0DD2319F08C2F817001C0869588231F
:1034E00009F4C8C0402F429546954770440F440FD9
:1034F000602F6F70862F90E0A0E0B0E0042E04C033
:10350000880F991FAA1FBB1F0A94D2F704FF10C08F
:103510000FE010E020E030E004C0000F111F221F78
:10352000331F4A95D2F7009510952095309503C02A
:1035300000E010E09801C695C695C370BC01CD01AE
:10354000602B712B822B932BC23049F058F4C13081
:1035500019F00E9493208EC00E9481208BC00E948F
:10356000A52088C00E94F41F85C0CF70DD2339F0EC
:103570008C2F0E941A20802F0E9437197BC0802F29
:103580000E943E198C2F0E943B2074C0023F01F123
:1035900028F4003F41F0013FA1F03FC0033FF9F0A4
:1035A000043F39F13AC0DD2341F0153008F05EC028
:1035B0008C2F8F710E94602059C0163008F056C0C1
:1035C000F7CFDD2339F08C2F8F710E941A204EC067
:1035D000DD23C9F38C2F8F710E943B2047C0DD2370
:1035E00029F08C2F8F710E94052040C00E9400207E
:1035F0003DC0DD2349F0CF718C2F0E941A2063E07B
:103600008C2F0E945B2232C081E00E947A2212300D
:1036100068F182E00E947A2229C0DD2331F0112373
:1036200091F2802F0E94881821C0112399F209334A
:1036300049F49FEFE7EEF3E09150E040F040E1F70E
:1036400000C00000802F0E94E31810C04C2F4F7064
:10365000602FC7010E941E0A0E942B1F0FC04C2F13
:103660004F70602FC7010E94210A08C088EF8C0D9F
:10367000843020F40E9481160E94150ADD20C9F0D2
:103680000E94942180FD15C0F70112820E948E21B4
:103690000E941A20C7010E947A1B0E948E21DF918E
:1036A000CF911F910F91FF90EF90DF90CF900C94EE
:1036B0003B20DF91CF911F910F91FF90EF90DF9012
:1036C000CF9008950F931F93CF93DF93EC01688100
:1036D00079818A810E945C218C010E94B7200E941E
:1036E000A81FB801CE010E944519DF91CF911F910B
:1036F0000F910895CF93DF93EC01988189812B81FD
:103700003C81232B31F08F3F31F481E09F3F19F44E
:1037100003C081E001C080E080FD19C0CE010E949D
:10372000910981110CC00E94AE21882381F08A8109
:10373000882369F082E0DF91CF910C947A22CE0148
:103740000E94621BCE01DF91CF910C946C09DF9136
:10375000CF91089580E090E00E94F01680E090E024
:103760000E9406170E94D5210E94E5210E94122284
:103770000E944D140C949A128091080190910901B5
:103780000E940F240C94AA1B0E94C5210C94BC1B00
:10379000E92FE295EF704E2F50E0FA013297EE30AC
:1037A000F105B0F4EB55FF4F0C94DF2C803F91F006
:1037B00018F4883E68F40EC0843F51F40BC0883E74
:1037C00048F0813F29F406C093FB882780F90895CB
:1037D00080E0089581E008950E9451210E94C81B55
:1037E0000895CF93DF9300D000D01F92CDB7DEB7FE
:1037F0000F900F900F900F900F90DF91CF91089541
:10380000CF93DF9300D000D000D0CDB7DEB726969F
:103810000FB6F894DEBF0FBECDBFDF91CF910895F4
:103820001F93CF93DF93C091CB0216E08091CC021F
:10383000C81799F0D0E01C9FF0011D9FF00D1124D6
:10384000E353FD4F40815181628173818481958171
:103850000E94001C2196C770E9CFDF91CF911F9184
:1038600008954091FD025091FE026091FF02709117
:10387000000380910103909102030C94001C0F93AC
:103880001F93CF93DF938091020382958F7009F08D
:103890005DC08091FF02882309F458C08091CB025B
:1038A0001091CC026091FD027091FE02C091000364
:1038B000D091010391E06F3F09F090E0292F06E0DD
:1038C000811709F443C0209721F07F3F21F030E0B9
:1038D00003C031E001C0322F90E030FD34C0089FBA
:1038E000F001099FF00D1124DF01A353BD4F119684
:1038F0003C911197371327C03C91361324C0129680
:103900003C91129731111FC013964D915C91149701
:103910004C1B5D0B483C5105B0F4809102038F7045
:10392000806180930203EE52FD4F80818F70806131
:1039300080838DEF92E00E947A1BDF91CF911F91DF
:103940000F910C94101C01968770BACFDF91CF9124
:103950001F910F9108959F92AF92BF92CF92DF92E5
:10396000EF92FF920F931F93CF93DF93CDB7DEB704
:1039700061970FB6F894DEBF0FBECDBF8C0185E016
:10398000F801DE011D9601900D928A95E1F7F8018C
:1039900040815181E2809091FD026091FE02209170
:1039A0000003309101032115310531F06F3F31F4EF
:1039B00081E09F3F19F403C081E001C080E0F82F4F
:1039C000F1709F2E80FD46C1F801A380B4808DEF79
:1039D000C82E82E0D82EF090FF02F501E21BF30B17
:1039E000FF2009F4DFC080910203E83CF10508F0F4
:1039F0009BC0282F207F09F052C0561313C04913D3
:103A000011C0FE2CE1100EC08F7080618093020304
:103A10000E94311CC6010E947A1B80910203F801AA
:103A2000858358C1AB2831F05F3F31F481E04F3FCF
:103A300019F403C081E001C080E080FD03C081E093
:103A40008E2502C080E090E0F82FF170FF2E80FFFD
:103A50001CC08091CB022091CC0236E0821709F481
:103A600017C190E0389FF001399FF00D1124E35306
:103A7000FD4F6181561306C06081461303C0628109
:103A8000E61203C001968770E9CFFE2CEE2009F400
:103A900021C1809102038160809302035AC05613B2
:103AA00006C0491304C0E11002C0F8019FC04D8751
:103AB0005E878D859E850E94EC1B882379F1EE2020
:103AC00069F120910203822F82958F7090E0029716
:103AD00074F08091FD029091FE0298878F83198681
:103AE000BB86AA862C87CE0107960E947A1B86E0A9
:103AF000F801ADEFB2E001900D928A95E1F70E94D6
:103B00003F1C0E94311C0DC0561729F14D875E875E
:103B10008D859E850E94EC1B81112CC0C8010E94DE
:103B20007A1BFF24F394D6C0282F207F69F77A2DC3
:103B3000B98AA88A6E2D89890E94F11B8DEF92E0C7
:103B40000E947A1B86E0F60111928A95E9F70E949D
:103B5000311CF12CBFC04913D9CFE110D7CFF801E8
:103B60008583C8010E947A1B86E0F60111928A952E
:103B7000E9F7B0C0EE2091F220910203822F8295E6
:103B80008F7090E002970CF4B2CF8091FD0290917B
:103B9000FE029A8389831B82BD82AC822E83CE0172
:103BA0000196A3CFE83CF10508F047C0FE2CEE20BB
:103BB00009F4B4CF561330C049132EC0209102032C
:103BC00020FD21C0822F82958F70482F50E0411533
:103BD0005105C9F0F80125834F30510541F08F5F41
:103BE000982F9295907F822F8F70892B8583C801A3
:103BF0000E947A1B86E0F801ADEFB2E001900D92D1
:103C00008A95E1F742C086E0F801ADEFB2E001909D
:103C10000D928A95E1F75EC04D875E878D859E8502
:103C20000E94EC1B811163CF80910203816080931D
:103C30000203C8010E947A1B4DC07A2DB98AA88A56
:103C40006E2D89890E94F11B86E0F60111928A95FA
:103C5000E9F71BC0EE2009F461CF4D875E878D85A3
:103C60009E850E94EC1BF82E882309F457CF86E02E
:103C7000F801ADEFB2E001900D928A95E1F78DEF7A
:103C800092E00E9482180E943F1C0E94311C22C0B8
:103C90004D875E878D859E850E945121292F229513
:103CA0002F70223028F49F7039F0811105C00BC0AD
:103CB000243028F49F7049F4805E883020F0C801D9
:103CC0000E947A1B9F2CF92C05C0F8019581907FEA
:103CD00099F7F9CF8F2D61960FB6F894DEBF0FBE1E
:103CE000CDBFDF91CF911F910F91FF90EF90DF90AB
:103CF000CF90BF90AF909F9008951F93CF93DF9385
:103D0000CDB7DEB72C970FB6F894DEBF0FBECDBF90
:103D10004F83588769877A878B879C87CE01079660
:103D20000E94AB1C8823D1F09F8188852A853B8522
:103D3000232B31F08F3F31F481E09F3F19F403C012
:103D400081E001C080E080FD47C04F8158856985D2
:103D50007A858B859C850E94001C3EC086E0FE0112
:103D60003796DE01119601900D928A95E1F7FF8159
:103D7000E8856A857B856115710531F0EF3F31F487
:103D800081E0FF3F19F403C081E001C080E080FDC5
:103D900023C02091CC0230E0C90101968770992799
:103DA0004091CB0250E084179507F1F1F983EA8343
:103DB0007D836C8396E0929FD001939FB00D112478
:103DC000A353BD4FFE01319601900D929A95E1F7F4
:103DD0008093CC020E94101C16E08091CB0290913F
:103DE000CC02891771F1189FC001112483539D4F94
:103DF0000E94AB1C882329F1E091CB021E9FF001A9
:103E00001124E353FD4F408151816281738184818C
:103E100095810E94001C8091CB0290E001968770F2
:103E200099278093CB02D9CF0E94C41B1092CC0259
:103E30001092CB02EDEFF2E086E0DF011D928A9551
:103E4000E9F72C960FB6F894DEBF0FBECDBFDF9119
:103E5000CF911F910895EF92FF920F931F93CF93ED
:103E6000DF938C01892B09F46CC0F12CEE24E394D0
:103E7000E8012196F8018491843740F4843008F0F9
:103E800051C0813081F0823019F15BC0853709F46F
:103E900044C0A8F19CE7980F903708F052C08F7784
:103EA0000E94E31841C00E5F1F4FFE01849190E213
:103EB000980F983050F48770FE2D01C0FF0F8A953F
:103EC000EAF78F2F0E94D82114C00E9488182DC0B5
:103ED0000E5F1F4FFE01849190E2980F983060F4BE
:103EE0008770FE2D01C0FF0F8A95EAF78F2F0E9481
:103EF000DE210E94122219C00E94E31816C00E5F34
:103F00001F4FFE01C491CC2381F08FE99FE0019700
:103F1000F1F700C00000C150F6CF0E5F1F4FFE0149
:103F2000F49003C00E9488188E018F2D882309F415
:103F30009FCFEFE9FFE03197F1F700C0000081501B
:103F4000F5CFDF91CF911F910F91FF90EF900895E2
:103F5000089508950C94A91F0C94AA1F0E94AC1FE9
:103F60006093340370933503809336039093370343
:103F70000C94AA1B0C94AE1F0F931F930091340353
:103F8000109135032091360330913703602B712B4C
:103F9000822B932B1F910F910C94AE1F0F931F93A5
:103FA000009134031091350320913603309137038B
:103FB00060237123822393231F910F910C94AE1FD2
:103FC0000F931F9300913403109135032091360312
:103FD0003091370360277127822793271F910F9114
:103FE0000C94AE1F0C94A91F0E94F21F6093300323
:103FF0007093310380933203909333030C94AA1B84
:1040000060E070E0CB010C94F41F0F931F9341E02C
:1040100050E060E070E08A019B0104C0000F111FB6
:10402000221F331F8A95D2F7C901B8011F910F9142
:104030000C94F41F0F931F9341E050E060E070E098
:1040400004C0440F551F661F771F8A95D2F78091D1
:10405000300390913103A0913203B09133038A0170
:104060009B01082B192B2A2B3B2BC901B8011F914F
:104070000F910C94F41F0F931F9341E050E060E008
:1040800070E004C0440F551F661F771F8A95D2F752
:1040900040955095609570958091300390913103D3
:1040A000A0913203B09133038A019B0108231923A5
:1040B0002A233B23C901B8011F910F910C94F41FCF
:1040C0000F931F9341E050E060E070E004C0440FA4
:1040D000551F661F771F8A95D2F780913003909104
:1040E0003103A0913203B09133038A019B01082769
:1040F00019272A273B27C901B8011F910F910C945A
:10410000F41F0F931F9300913003109131032091FE
:10411000320330913303602B712B822B932B1F9131
:104120000F910C94F41F0F931F9300913003109183
:1041300031032091320330913303602371238223B2
:1041400093231F910F910C94F41F0F931F930091D1
:1041500030031091310320913203309133036027F3
:104160007127822793271F910F910C94F41F0895B4
:104170002EE0929F800D1124E82FE695E695E695B6
:10418000877051E001C0550F8A95EAF785E0E89FF6
:10419000F0011124ED5FFC4F20E030E070E0408141
:1041A000CB01022E02C0969587950A94E2F78170A2
:1041B000819584278523842781932F5F3F4F253066
:1041C000310569F708952EE0929F800D1124682F24
:1041D000669566956695982F977085E0689FB00103
:1041E000112440E050E080E0FB01E40FF51FED5F9B
:1041F000FC4F208130E0092E02C0369527950A94A5
:10420000E2F721703327042E01C0220F0A94EAF747
:10421000822B4F5F5F4F4530510531F70895BF92B4
:10422000CF92DF92EF92FF920F931F93CF93DF9382
:104230008C01C0903003D0903103E0903203F090B5
:1042400033038091340390913503A0913603B091EC
:104250003703C82AD92AEA2AFB2ACFE1D0E0D701BE
:10426000C6010C2E04C0B695A795979587950A941C
:10427000D2F780FD04C0219790F7B12C07C0BC2E67
:10428000B8018C2F0E943D0A0197A9F38B2DDF9175
:10429000CF911F910F91FF90EF90DF90CF90BF9043
:1042A0000895CF93DF93EC010E940F21BE010E947D
:1042B0003D0ADF91CF9108951F93CF93DF93EB01D8
:1042C0009091CA02992321F0CB010E94512113C081
:1042D000882349F0CB010E940F21182F682FCE01AF
:1042E0000E94B82004C0CB010E94E320182FBE0119
:1042F000812F0E943D0ADF91CF911F9108950E9466
:10430000A92420913B0330913C03821B930B9C0119
:1043100081E0243F314008F480E0089580913A0321
:10432000859585958595089580913A0387700895C0
:104330000E94A9242091380330913903821B930BEA
:10434000843F914040F080913A0382FB882780F9B6
:1043500091E0892701C080E08170089590913A032F
:10436000977081E009F480E00895809160030895DA
:1043700090916003892B80936003089580959091BC
:104380006003892380936003089510926003089569
:1043900090915F03892B80935F030895809590919E
:1043A0005F03892380935F03089510925F0308954C
:1043B00090915E03892B80935E0308958095909180
:1043C0005E03892380935E03089510925E0308952F
:1043D00080913D03089508950C94EB210C94EC21F9
:1043E000CF9390913D03981769F0C82F0E94A9249C
:1043F00090933C0380933B03C0933D038C2FCF915C
:104400000C94EE21CF91089580913D03882349F0CB
:1044100010923D0310923C0310923B0380E00C94F9
:10442000EE210895E0910801F09109018091600367
:104430008083E0910801F0910901908180915F03F0
:10444000892B8083E0910801F0910901908180918E
:104450005E03892B808380913D03882321F10E9494
:104460007F21882371F08091610380FF08C08BE475
:104470009CE09F938F930E9434080F900F900E94AE
:104480000422E0910801F0910901908180913D039F
:10449000892B808380910801909109010E9441231A
:1044A00081110E94042280910801909109010C94CD
:1044B0008D160C94EB2198E0899F90011124262BF6
:1044C00020933A030E941A200E94A9249093390352
:1044D0008093380380913A038595859585950C9452
:1044E000592210923A03109239031092380380E057
:1044F0000C94592220913A038095822380933A03A9
:10450000982F977079F430E0482F082E000C550B47
:104510002417350739F08595859585950E943B20B0
:104520000C947122089580E090E00E94012D21E01A
:104530008B3E9E4F09F020E0822F089582E090E0AC
:104540000C94F92C83E090E00C94F92CCF9384E048
:1045500090E00E94F92CC82F81E290E00E94F92C93
:104560002C2F30E0A901582BCA01CF910895CF9389
:10457000C92F682F84E090E00E94072D6C2F81E204
:1045800090E0CF910C94072DAB01BC018FE090E03F
:104590000C94192DAB01BC0183E190E00C94192D12
:1045A00060E070E0CB010C94CA2260E070E0CB01C7
:1045B0000E94C4220C94D0226BEE7EEF80E090E04B
:1045C0000E94252D60E082E090E00E94072D60E0CF
:1045D00083E090E00E94072D10923403109235037F
:1045E000109236031092370360E084E090E00E945E
:1045F000072D60E081E290E00E94072D60E085E0F9
:1046000090E00E94072D60E086E090E00E94072D78
:104610006FEF87E090E00E94072D40E050E0BA0184
:1046200088E090E00E94192D60E08DE090E00E940B
:10463000072D40E050E0BA0188E190E00E94192D7A
:1046400060E087E190E00E94072D40E050E0BA0171
:104650008CE190E00E94192D60E080E290E00E94E1
:10466000072D40E050E0BA0188E190E00E94192D4A
:104670000C94D5220C94DC22682F8EE090E00C94F0
:10468000072DFC01329680911401882331F080912E
:104690008C0387FF02C09EE101C096E080E091504C
:1046A00028F021912223D9F38F5FF9CF0895662353
:1046B00051F1209114012223E9F020918C0327FF6E
:1046C00019C0462F4695469546954E31E0F46770E1
:1046D00021E030E002C0220F331F6A95E2F7FC01AF
:1046E000E40FF11D828190E02823392381E0232B00
:1046F00069F409C0FC01329608962191621729F0ED
:10470000E817F907D1F780E0089581E008959C014A
:10471000FC0132969FEF80E04191461789F09F3F60
:1047200019F4411101C0982F8F5F8630A9F79F3F80
:1047300039F0F901E90FF11D97FDFA9562830895AB
:1047400008959C012A5F3F4FFC014281461301C03E
:104750001282019682179307B9F70895262F26959E
:10476000269526952E3170F4FC01E20FF11D67703D
:1047700021E030E001C0220F6A95EAF78281282B00
:10478000228308958091610380FF0CC01F926F9374
:104790008BE79CE09F938F930E9434080F900F90BB
:1047A0000F900F900895262F2695269526952E3149
:1047B00078F4FC01E20FF11D677021E030E001C0E8
:1047C000220F6A95EAF72095828128232283089593
:1047D0008091610380FF0CC01F926F938DE59CE078
:1047E0009F938F930E9434080F900F900F900F901B
:1047F000089520911401222329F020918C0327FD94
:104800000C94AE230C94872320911401222329F0C9
:1048100020918C0327FD0C94D3230C94A123209189
:104820001401FC013296222331F080918C0387FF22
:1048300002C08EE101C086E0DF011D928A95E9F792
:10484000089508950C9421240C942124CF930E9460
:1048500024240E9446080E942224C0E08C2F0E943B
:104860009508892B29F4CF5FC530C1F780E001C0DE
:1048700081E0CF9108950C9421240C943B248091E5
:104880009203843049F10E943D2480E00E94150A81
:104890001092620320E488E190E00FB6F894A895A6
:1048A000809360000FBE2093600083B7817F846097
:1048B00083BF83B7816083BF7894889583B78E7FE9
:1048C00083BF0FB6F894A8958091600088618093AB
:1048D0006000109260000FBE08950C9421240E9485
:1048E000C41B0E9481160E94150A0C946D241F920D
:1048F0000F920FB60F9211248F939F93AF93BF9394
:1049000080916203811113C0809188039091890383
:10491000A0918A03B0918B034196A11DB11D809394
:10492000880390938903A0938A03B0938B03BF916C
:10493000AF919F918F910F900FBE0F901F90189580
:1049400082E084BD93E095BD9AEF97BD80936E00A1
:1049500008952FB7F8948091880390918903A091CE
:104960008A03B0918B032FBF08952FB7F8946091FD
:1049700088037091890380918A0390918B032FBFE4
:1049800008959C014FB7F894809188039091890312
:10499000A0918A03B0918B034FBF821B930B0895A4
:1049A00078941F920F920FB60F9211248F939F93BA
:1049B000AF93BF938091880390918903A0918A035C
:1049C000B0918B030196A11DB11D80938803909334
:1049D0008903A0938A03B0938B03BF91AF919F91FA
:1049E0008F910F900FBE0F901F90189587E797E754
:1049F00090930108809300089AE088E10FB6F8943C
:104A0000A895809360000FBE90936000FFCF9093B5
:104A100091018093900108950E949322811102C018
:104A20000E943A230E949E22809361030E94A62244
:104A300090938D0380938C030E94A222682F70E0D4
:104A400080E090E00E94BA1F6091300370913103C2
:104A500080913203909133030C94F21F809186036E
:104A60000895CF93DF9300D01F92CDB7DEB790911A
:104A70009203943019F589837B836A8382E0809363
:104A8000E9008FEF9091E800815095FD06C095ED0B
:104A90009A95F1F700008111F5CF8091E80085FF2C
:104AA0000DC040E050E063E070E0CE0101960E944E
:104AB00022288091E8008E778093E8000F900F9075
:104AC0000F90DF91CF910895BC0184E00C943125C3
:104AD000BC0183E00C94312522E02093E9002FEF04
:104AE0003091E800215035FD06C035ED3A95F1F7DB
:104AF00000002111F5CF2091E80025FF0BC040E018
:104B000050E066E070E00E9422288091E8008E77F5
:104B10008093E8000895CF93DF932091140122231E
:104B200039F020918C0327FF03C060E222E002C02D
:104B300068E021E02093E9002FEF3091E800215058
:104B400035FD06C035ED3A95F1F700002111F5CF9E
:104B50002091E80025FF1DC0EC0180911401811116
:104B600005C040E050E068E070E003C070E040E065
:104B700050E0CE010E9422288091E8008E77809339
:104B8000E80080E2FE01A6E6B3E001900D928A956E
:104B9000E1F7DF91CF9108958EEB9CE00E949B0797
:104BA00080919103811109C00E94B3290E94102AAB
:104BB0008091E20084608093E20008958AEB9CE09B
:104BC0000E949B0710929103089586EB9CE00C9441
:104BD0009B0782EB9CE00C949B078EEA9CE00C9474
:104BE0009B07209164032F5F822F62E30E94BF2CFA
:104BF000992319F02093640308951092640380911F
:104C00006503882371F180919203843041F580918E
:104C1000E9008F702091EC00922F917020FD90E8B8
:104C2000892B93E09093E9009091EB0090FF14C0E2
:104C30009091EE0097FF10C09091E80095FF03C09F
:104C40001092F100F9CF9091E80090FF05C090918B
:104C5000E8009E779093E8008F708093E9001092AF
:104C60006503089542E061EC81E00E942C2942E254
:104C700061EC82E00E942C2942E261EC83E00C941A
:104C80002C2980919403833009F460C030F4813082
:104C900071F0823009F499C008958A3009F485C012
:104CA0008B3009F46BC0893009F0A7C020C0809117
:104CB0009303813A09F0A1C08091E800877F809337
:104CC000E8008091970390919803892B21F460E28A
:104CD00086E693E003C060E080E090E070E00E9430
:104CE0006D288091E8008B778093E800089580918B
:104CF0009303813209F081C08091970390919803CA
:104D0000029708F07AC08091E800877F8093E800DE
:104D10008091E80082FD05C0809192038111F8CF57
:104D20006CC02091F3008091F20090E0922B0297EA
:104D300029F48091F1008B7F813021F48091F10082
:104D4000809386038091E8008B7753C08091930312
:104D5000813A09F052C08091970390919803892B72
:104D600009F04BC08091E800877F8093E800809134
:104D7000E80080FFFCCF8091140136C0809193033E
:104D80008132D9F58091970390919803892BA9F5E9
:104D90008091E800877F8093E8000E9461298091DC
:104DA0009503809314010C94C41B8091930381326A
:104DB00021F58091E800877F8093E8000E946129B7
:104DC0008091960380938703089580919303813A9D
:104DD000A1F48091E800877F8093E8008091E8004B
:104DE00080FFFCCF809187038093F1008091E800E1
:104DF0008E778093E8000C94612908959FB7F8940A
:104E0000109265039FBF90919203943009F057C0B0
:104E10009091E9009F703091EC00232F217030FDBC
:104E200020E8922B23E02093E9002091EB0020FF63
:104E300043C02091EE0027FF3FC02091630322234F
:104E400021F02091E80025FF37C01092630326E08F
:104E50003091E80035FD15C030919203343061F592
:104E60003091EB0035FD28C0215021F481E0809382
:104E7000630322C0EFE9FFE03197F1F700C00000C3
:104E8000E7CF8093F1008091E80085FD0AC0809112
:104E9000E80080FFFCCF8091E8008E778093E800E7
:104EA00006C08FB7F89421E0209365038FBF9F70F1
:104EB0009093E90080E008959F709093E9008FEF50
:104EC000089584B7877F84BF0FB6F894A895809122
:104ED0006000886180936000109260000FBE90E0D7
:104EE00080E80FB6F89480936100909361000FBE44
:104EF0000E9447170E94B3290E94102A8091E20065
:104F000084608093E20078940E94A42C0E94511740
:104F10008AE091E00E947C168DE99CE00E949B074C
:104F2000809192038530C9F489E99CE00E949B0737
:104F300080919203853079F40E943F248091900300
:104F40008823B1F30E942624882391F30E940C2821
:104F50000E94C41BEDCF0E946F240E9481170E9403
:104F60003B170E943A17DCCF0C94B627292F332722
:104F700023303105C9F060F42130310581F0223051
:104F8000310509F041C08BE590E026E03DE040C0EE
:104F900021323105E1F02232310531F135C082E1B3
:104FA00090E021E63DE034C099278130910549F039
:104FB00028F0029749F5E2ECFCE005C0E2E0FDE0F4
:104FC00002C0E2EEFCE0849190E09F0121C06330DA
:104FD0007105D0F4660F771FFB01E657FE4F208165
:104FE000318189E090E014C06330710568F4FB0101
:104FF000EE0FFF1FEC57FE4F20813181FB01EF5771
:10500000FE4F808190E004C080E090E020E030E03E
:10501000FA0131832083089580E189BD82E189BD51
:1050200009B400FEFDCF8091D8008F7D8093D80019
:105030008091E00082608093E0008091E00081FD3B
:10504000FCCF0895CF92DF92EF92FF920F931F93C0
:10505000CF93DF93EC018B017A010E9480298111AB
:1050600033C0E114F10439F0F70180819181081B0C
:10507000190BC80FD91FC12CD12C0115110519F11D
:105080008091E80085FD16C08091E8008E778093BE
:10509000E800E114F10449F0F70180819181C80E24
:1050A000D91ED182C08285E00FC00E94802988234A
:1050B00021F30AC089918093F10001501109FFEF9B
:1050C000CF1ADF0ADACF80E0DF91CF911F910F91E5
:1050D000FF90EF90DF90CF90089520919903309149
:1050E0009A032617370748F06115710539F42091A6
:1050F000E8002E772093E80001C0B901FC0120E010
:105100006115710579F1809192038823F1F1853061
:10511000F1F18091E80083FD3CC08091E80082FDC0
:105120002EC08091E80080FFEBCF2091F3008091AA
:10513000F20090E0922B6115710551F088309105D5
:1051400038F421912093F100615071090196F3CF59
:1051500021E0089709F020E08091E8008E778093A5
:10516000E800CECF2111CFCF0AC0809192038823CF
:1051700061F0853061F08091E80083FD0AC0809184
:10518000E80082FFF2CF80E0089582E0089583E096
:10519000089581E008952091990330919A0326178C
:1051A000370748F06115710539F42091E8002E7732
:1051B0002093E80001C0B901FC0120E061157105F0
:1051C00091F180919203882309F440C0853009F45D
:1051D0003FC08091E80083FD3DC08091E80082FDE2
:1051E0002FC08091E80080FFE9CF2091F3008091EB
:1051F000F20090E0922B6115710559F0883091050D
:1052000040F424912093F100319661507109019688
:10521000F2CF21E0089709F020E08091E8008E7736
:105220008093E800CBCF2111CCCF0AC080919203AC
:10523000882361F0853061F08091E80083FD0AC029
:105240008091E80082FFF2CF80E0089582E0089527
:1052500083E0089581E00895982F973068F5909342
:10526000E900981739F07091EC002091ED00509111
:10527000F00003C0242F762F50E021FD02C09F5F75
:10528000ECCF3091EB003E7F3093EB003091ED009E
:105290003D7F3093ED003091EB0031603093EB00B7
:1052A0007093EC002093ED005093F0002091EE00FD
:1052B00027FDE5CF80E008958F708093E90081E0BD
:1052C00008958091930387FF11C08091E80082FDCB
:1052D00005C0809192038111F8CF11C08091E80040
:1052E0008B770BC080919203882349F08091E8006E
:1052F00080FFF8CF8091E8008E778093E8000895D2
:105300002091E4003091E50095E64091EC00842F77
:10531000817040FF23C08091E80080FD1DC0809116
:105320009203882399F0853099F08091EB0085FDF8
:1053300011C04091E4005091E5002417350729F38E
:10534000915011F09A01E1CF84E0089582E0089530
:1053500083E0089581E0089580E008954091E80099
:1053600042FFDDCF08950E94212A0E94292AE0EE03
:10537000F0E0808181608083E8EDF0E080818F77CC
:10538000808319BCA7EDB0E08C918E7F8C938081D7
:105390008F7E80831092910308950F931F93CF9374
:1053A000DF930E94212A0E94292AC8EDD0E088813B
:1053B0008F77888388818068888388818F7D8883C0
:1053C00019BC1092920310928E03109290031092C7
:1053D0008F0300EE10E0F80180818B7F808388814D
:1053E0008160888342E060E080E00E942C29E1EE49
:1053F000F0E080818E7F8083E2EEF0E0808181604A
:105400008083808188608083F80180818E7F8083A3
:10541000888180618883DF91CF911F910F910895DA
:10542000E8EDF0E080818F7E8083E7EDF0E0808121
:105430008160808384E082BF81E0809391030C943B
:10544000CD29E8EDF0E080818E7F80831092E2002C
:1054500008951092DA001092E10008951F920F92C1
:105460000FB60F9211242F933F934F935F936F9337
:105470007F938F939F93AF93BF93EF93FF9380910D
:10548000E10082FF0BC08091E20082FF07C08091A3
:10549000E1008B7F8093E1000E94F1258091DA008A
:1054A00080FF1FC08091D80080FF1BC08091DA0070
:1054B0008E7F8093DA008091D90080FF0DC080E15B
:1054C00089BD82E189BD09B400FEFDCF81E08093F2
:1054D00092030E94CC2505C019BC109292030E9431
:1054E000DE258091E10080FF19C08091E20080FFFD
:1054F00015C08091E2008E7F8093E2008091E200EF
:1055000080618093E2008091D80080628093D8000F
:1055100019BC85E0809392030E94E9258091E10007
:1055200084FF30C08091E20084FF2CC080E189BDFF
:1055300082E189BD09B400FEFDCF8091D8008F7D46
:105540008093D8008091E1008F7E8093E10080916C
:10555000E2008F7E8093E2008091E2008160809380
:10556000E20080918E03882311F084E007C08091CF
:10557000E30087FD02C081E001C083E080939203D5
:105580000E94ED258091E10083FF29C08091E20017
:1055900083FF25C08091E100877F8093E10082E056
:1055A0008093920310928E038091E1008E7F80930E
:1055B000E1008091E2008E7F8093E2008091E20022
:1055C00080618093E20042E060E080E00E942C294C
:1055D0008091F00088608093F0000E94E525FF91A3
:1055E000EF91BF91AF919F918F917F916F915F915B
:1055F0004F913F912F910F900FBE0F901F901895D4
:105600001F920F920FB60F9211242F933F934F9337
:105610005F936F937F938F939F93AF93BF93CF933A
:10562000DF93EF93FF93C091E900CF708091EC007E
:10563000D82FD17080FDD0E81092E9008091F00061
:10564000877F8093F00078940E94442B1092E900A9
:105650008091F00088608093F000CD2BCF70C093D4
:10566000E900FF91EF91DF91CF91BF91AF919F91B1
:105670008F917F916F915F914F913F912F910F90FB
:105680000FBE0F901F9018951F93CF93DF93CDB748
:10569000DEB7AA970FB6F894DEBF0FBECDBFE3E921
:1056A000F3E08091F100819323E0EB39F207C9F731
:1056B0000E9441268091E80083FF2EC180919303D0
:1056C00090919403492F50E04A30510508F024C1CD
:1056D000FA01ED54FF4F0C94DF2C803821F0823812
:1056E00009F01AC108C080918F039091900399230B
:1056F00089F082600FC0809197038F70873008F027
:105700000BC18093E9008091EB0085FB882780F92D
:105710001092E9009091E800977F9093E8008093C1
:10572000F1001092F100D1C0282F2D7F09F0F4C0B4
:10573000882319F0823061F0EFC0809195038130A9
:1057400009F0EAC0933009F080E0809390032EC006
:105750008091950381112AC0809197038F702FEF5C
:10576000280F263008F0D8C08093E9002091EB0084
:1057700020FF1CC0933021F48091EB00806214C0A4
:105780009091EB0090619093EB0021E030E0A90153
:1057900002C0440F551F8A95E2F74093EA00109229
:1057A000EA008091EB0088608093EB001092E900A2
:1057B0008091E800877F8093E8000E946129ACC057
:1057C0008111AAC0109195031F778091E300807822
:1057D000812B8093E3008091E800877F8093E8002D
:1057E0000E9461298091E80080FFFCCF8091E30056
:1057F00080688093E300111102C082E001C083E061
:105800008093920389C08058823008F085C08091CF
:105810009503909196038C3D53E0950779F583E0CD
:105820008A838AE289834FB7F894DE01139620E0D9
:105830003EE051E2E32FF0E050935700E49120FF67
:1058400003C0E295EF703F5FEF708E2F90E0EA307B
:1058500010F0C79601C0C0968D939D932F5F2431A1
:1058600049F74FBF8091E800877F8093E8006AE2A4
:1058700070E0CE0101960E946D2816C060919703DA
:1058800070919803AE014F5F5F4F0E94B427BC0137
:10589000892B09F441C09091E800977F9093E8002C
:1058A00089819A810E94CB288091E8008B77809330
:1058B000E80032C0803881F58091E800877F8093CE
:1058C000E80080918E038093F1008091E8008E774C
:1058D00072CF811121C080919503909196039927F1
:1058E0000297D4F48091E800877F8093E80080914C
:1058F000950380938E030E94612980918E0381110C
:1059000006C08091E30087FD02C081E001C084E011
:10591000809392030E9432268091E80083FF0AC0A0
:105920008091E800877F8093E8008091EB0080629F
:105930008093EB00AA960FB6F894DEBF0FBECDBFE2
:10594000DF91CF911F910895CF9380919203882387
:10595000A1F0C091E900CF709091EC00892F817087
:1059600090FD80E8C82B1092E9008091E80083FD4B
:105970000E94442BCF70C093E900CF910895991BEA
:1059800079E004C0991F961708F0961B881F7A9536
:10599000C9F78095089597FB072E16F4009407D059
:1059A00077FD09D00E94E52C07FC05D03EF49095C8
:1059B00081959F4F0895709561957F4F0895EE0FE3
:1059C000FF1F0590F491E02D0994AA1BBB1B51E128
:1059D00007C0AA1FBB1FA617B70710F0A61BB70B5F
:1059E000881F991F5A95A9F780959095BC01CD0104
:1059F0000895F999FECF92BD81BDF89A992780B597
:105A00000895A8E1B0E042E050E00C942D2D262F3F
:105A1000F999FECF92BD81BDF89A019700B40216A4
:105A200039F01FBA20BD0FB6F894FA9AF99A0FBE52
:105A300008950396272F0E94082D0E94072D252FD9
:105A40000E94082D242F0C94082D0196272F0E94C8
:105A5000082D0C94072DDC01CB01FC01F999FECF38
:105A600006C0F2BDE1BDF89A319600B40D924150E6
:0A5A70005040B8F70895F894FFCFF6
:105A7A002808641E140A321E3E032E258B256C2527
:105A8A006825642501E200E900EA00B500B600B71E
:105A9A0000CD008301CC008A0192019401210223E6
:105AAA000224022502260227022A02B300B4006F4A
:105ABA0000700081828301020304050607080900B9
:105ACA00E200E900EA00B500B600B700CD008301A4
